:100000000C9472000C944D010C944D010C944D0114
:100010000C944D010C944D010C944D010C944D0128
:100020000C944D010C944D010C944D010C944D0118
:100030000C944D010C944D010C944D010C944D0108
:100040000C944D010C944D010C944D010C944D01F8
:100050000C944D010C944D010C944D010C944D01E8
:100060000C944D010C944D010C944D010C944D01D8
:100070000C944D010C944D010C944D010C944D01C8
:100080000C944D010C944D010C944D010C944D01B8
:100090000C944D010C944D010C944D010C944D01A8
:1000A0000C944D010C944D010C944D010C944D0198
:1000B0000C944D010C944D010C944D010C944D0188
:1000C0000C944D010C944D010C944D010C944D0178
:1000D0000C944D010C944D010C944D010C944D0168
:1000E0000C944D0111241FBECFEFD1E2DEBFCDBF76
:1000F00000E00CBF0E9485000C947E00F894FFCFB6
:0A0100006173646667680000000088
:10010A006F927F928F92EF92FF920F931F93CF93EA
:10011A00DF93CDB7DEB72A970FB6F894DEBF0FBECE
:10012A00CDBF20E031E040E087E0F901DE01119621
:10013A00742F0E942901FE01389683E0DF011D9287
:10014A008A95E9F70E94470180EA0E94DA0080E472
:10015A000E940001FE0131967F0100E010E03F019C
:10016A00F0E88F2E07C0D7018D917D010E94000112
:10017A000F5F1F4F882DB3010E9417010817190737
:10018A0090F30E94370180E090E02A960FB6F89427
:10019A00DEBF0FBECDBFDF91CF911F910F91FF90B0
:0A01AA00EF908F907F906F90089502
:1001B40094EA9093BC00ECEBF0E090819923ECF787
:1001C4009091B900987F983099F48093BB0084E8AB
:1001D4008093BC00ECEBF0E080818823ECF7809105
:1001E400B900887F883131F0803231F083E008959E
:0C01F40080E0089581E0089582E0089505
:100200008093BB0084E88093BC00ECEBF0E080813D
:100210008823ECF78091B900887F883221F0803301
:0E02200021F082E0089580E0089581E00895C5
:10022E009B01482FA82FCB01FC015A2F0E944001A1
:10023E00662319F00196A11DF7CF642FA901841B27
:04024E00950B08956F
:10025200992777FD06C07BBF07900D920197E1F7C2
:0C026200089501900D920197E1F70895B6
:10026E0084E98093BC00ECEBF0E0808184FDFDCF4F
:02027E000895E1
:0E02800057FD03C05BBF67910895608108952C
:0C028E001092B9008FEF8093B800089523
:04029A000C940000C0
:00000001FF
