:100000000C9472000C9496000C9496000C9496003C
:100010000C9496000C9496000C9496000C94960008
:100020000C9496000C9496000C9496000C949600F8
:100030000C9496000C9496000C9496000C949600E8
:100040000C9496000C9496000C9496000C949600D8
:100050000C9496000C9496000C9496000C949600C8
:100060000C9496000C9496000C9496000C949600B8
:100070000C9496000C9496000C9496000C949600A8
:100080000C9496000C9496000C9496000C94960098
:100090000C9496000C9496000C9496000C94960088
:1000A0000C9496000C9496000C9496000C94960078
:1000B0000C9496000C9496000C9496000C94960068
:1000C0000C9496000C9496000C9496000C94960058
:1000D0000C9496000C9496000C9496000C94960048
:1000E0000C94960011241FBECFEFD1E2DEBFCDBF2E
:1000F00000E00CBF0E9490000C947E00F894FFCFAB
:1001000084B1876084B92398289A81E58CBD8EEFED
:040110008DBD089504
:0C0114008EBD0DB407FEFDCF8EB5089522
:0C0120000E94800080E50E948A00FFCF52
:04012C000C9400002F
:00000001FF
