:020000040000FA
:08000000803102288731FD2F39
:10041800F001F1010130F0070030F13D27307102A1
:10042800103003197002031C1A2A1B2A0E2A08000E
:10043800F800F401F5017008F200F3017208F60003
:100448007308F700781C292A2A2A2E2A7608F40726
:100458007708F53D0130F635F70D890B2F2A031083
:10046800F80C7808031D392A3A2A262A7508F1005B
:100478007408F000080003102000560D570DD8002E
:100488005808DE005E08031D4A2A4B2A542A003009
:10049800D7000030D6000030D5000030D400B32A91
:1004A8005408D8005508D9005608DA005708DB0068
:1004B8001F30DB36DA0CD90CD80C890B5D2A5808AA
:1004C800DC005C08DD00D617FF30D405FF30D50509
:1004D800FF30D6050030D7059630DE02DE1F752ABC
:1004E800762A8E2A5E08803A973E03187C2A7D2A4F
:1004F8007E2A4B2A0130D736D60CD50CD40C890B62
:100508007F2A0130D8005808DE07031D8C2A8D2A5F
:100518007E2AA32A20305E02031C932A942A9E2A4C
:100528004B2A0130D435D50DD60DD70D890B962A17
:100538000130DE025E08031DA22AA32A952A5D085F
:100548000319A72AA82AB32AD409D509D609D7098D
:10055800D40A0319D50A0319D60A0319D70A0800B9
:1005680021009D01E0309E001D149D149D18BD2A98
:10057800BE2ABA2A1B082000DF00E0015F08E80055
:100588006008E90021001C082000DF00E0015F0886
:10059800E000DF015F08E8046008E9046808F0008B
:1005A8006908F100F201F3010030833146238231FA
:1005B80073082000A7007208A6007108A50070083B
:1005C800A4004030A3009C30A2002830A100F630DF
:1005D800A0008531A625823120002308E5002208E5
:1005E800E4002108E3002008E2006508A700640889
:1005F800A6006308A5006208A4004030A300CC3020
:10060800A200CC30A100CD30A0008531A6258231D2
:1006180020002308C1002208C0002108BF002008CC
:10062800BE004430BD007A30BC000030BB00003052
:10063800BA008331F223823120003D08D7003C08FC
:10064800D6003B08D5003A08D40082313F228231D7
:1006580020005508E7005408E60082310C22823158
:10066800E0302200980020006608220099008231BC
:100678000C22823182310C22823182310C22823169
:1006880080310228F800780803194B2B4C2B602B7B
:10069800F31F4F2B502B602B7009FA007109FB00D8
:1006A8007209FC007309FD00FA0A0319FB0A031911
:1006B800FC0A0319FD0A682B7308FD007208FC0088
:1006C8007108FB007008FA00730872047104700462
:1006D800031D6F2B702B792B0030F3000030F200D4
:1006E8000030F1000030F000F12B9630F40074086F
:1006F800F900892B0130F4007408F9070130FD3640
:10070800FC0CFB0CFA0C890B832BFE307D05031DBA
:100718008E2B8F2B7E2BA32B0130F4007408F90746
:100728000130FA070030FB3D0030FC3D0030FD3D54
:100738000130FD36FC0CFB0CFA0C890B9D2BFF30AD
:100748007D05031DA82BA92B902BB32B0130F90293
:100758000130FA35FB0DFC0DFD0D890BAD2BFC1B93
:10076800B62BB72BBD2B023079020318BC2BBD2B3F
:10077800AA2B7918C02BC12BC92BFF30FA05FF30E3
:10078800FB057F30FC05FF30FD050310F90C7908E7
:10079800F400F501F601F7011830F435F50DF60D02
:1007A800F70D890BD12B7408FA047508FB04760839
:1007B800FC047708FD0478080319E32BE42BE92BE4
:1007C800F31FE72BE82BE92BFD177D08F3007C08C6
:1007D800F2007B08F1007A08F000080020004108C8
:1007E8008039C2004208CB004135C2004208D2001D
:1007F800C01FFF2B002C012C521452080319052C82
:10080800062C162C520A031D0A2C0B2C132C003014
:10081800C1000030C0000030BF000030BE00C0176B
:10082800C1011E2C0030C1000030C0000030BF00E4
:100838000030BE003D088039C2004208CB063D3575
:10084800C2004208D300BC1F2A2C2B2C2C2C53147A
:1008580053080319302C312C412C530A031D352C15
:10086800362C3E2C0030BD000030BC000030BB00F0
:100878000030BA00BC17BD01492C0030BD00003063
:10088800BC000030BB000030BA003D083C043B040B
:100898003A04031D502C512C6A2C0030C100003042
:1008A800C0000030BF000030BE008030C0047F3080
:1008B800C1044B08C2004208C1044108BD004008F9
:1008C800BC003F08BB003E08BA00A52D5208031D16
:1008D8006E2C6F2C782C0030BD000030BC0000302E
:1008E800BB000030BA00A52D5208C200C30143085E
:1008F800C50053084202C400031CC50344087F3ED8
:10090800CC000030453DCD004108CA004008C90070
:100918003F08C8003E08C7000030C1000030C000D2
:100928000030BF000030BE000030D1000030D000E1
:100938000030CF000030CE00D301E02C530803195B
:10094800A62CA72CC12C0130C735C80DC90DCA0D5E
:10095800890BA82C0130BE35BF0DC00DC10D890B08
:10096800AF2CD11FB82CB92CBA2C3E140130CE357F
:10097800CF0DD00DD10D890BBB2C3D084A02031DAC
:10098800CF2C3C084902031DCF2C3B084802031D0D
:10099800CF2C3A084702031CD22CD32CDC2C51173D
:1009A8003A08C7023B08C83B3C08C93B3D08CA3B5C
:1009B8000130C2004208D3071A305302031CE52C49
:1009C800E62CA22C4A084904480447040319ED2CD4
:1009D800EE2C072D4E14072D0130BE35BF0DC00D6E
:1009E800C10D890BF12CD11FFA2CFB2CFC2C3E14C9
:1009F8000130CE35CF0DD00DD10D890BFD2CFF3038
:100A0800CC07FF30CD3DC01F0A2D0B2DF02CD30194
:100A1800D11F0F2D102D2C2DFF304E05C200FF3099
:100A28004F05C300FF305005C4007F305105C50095
:100A380045084404430442040319232D242D272D7B
:100A4800D301D30A2C2D3E1C2A2D2B2D2C2D242DE1
:100A580053080319302D312D592D0130BE070030B0
:100A6800BF3D0030C03D0030C13D411C3C2D3D2DF7
:100A7800592D3E08C2003F08C3004008C400410881
:100A8800C5000130C600C537C40CC30CC20CC60B68
:100A9800472D4508C1004408C0004308BF0042086C
:100AA800BE000130CC070030CD3D4D08803AC20071
:100AB80080304202031D622DFF304C02031C652D5D
:100AC800662D732DFF302000CC000030CD000030A3
:100AD800C1000030C0000030BF000030BE00200060
:100AE8004D08803AC20080304202031D7D2D01303E
:100AF8004C020318802D812D8D2D2000CC01CD01B5
:100B08000030C1000030C0000030BF000030BE001F
:100B1800CB0120004C08C2004208D200521C952D7F
:100B2800962D982DC0179C2D7F30C2004208C00515
:100B38005236C2004208C1004B08C2004208C10434
:100B4800612C0800200023088039A8002808AD007F
:100B58002335A8002808B300A21FB32DB42DB52D46
:100B6800331433080319B92DBA2DC92D330A031DBF
:100B7800BE2DBF2DC72D0030A3000030A2000030CD
:100B8800A1000030A000A217D12D0030A300003032
:100B9800A2000030A1000030A00027088039A8007A
:100BA8002808AD062735A8002808B200A61FDD2DA5
:100BB800DE2DDF2D321432080319E32DE42DF32D39
:100BC800320A031DE82DE92DF12D0030A700003071
:100BD800A6000030A5000030A400A617FB2D0030A9
:100BE800A7000030A6000030A5000030A40032089D
:100BF8000319FF2D002E052E3308031D042E052E84
:100C08000E2E0030A3000030A2000030A1000030FA
:100C1800A000FC2F2008A8002808F0002608823130
:100C28001C22853171082000B9007008B800380806
:100C3800A800A901AA01AB012B08B1002A08B0003D
:100C48002908AF002808AE003908A800A901AA01A0
:100C5800AB012B08B7002A08B6002908B5002808F8
:100C6800B4002108A8002808F000250882311C22B9
:100C7800853171082000B9007008B8003808A8004C
:100C8800A901AA01AB012808AE072908AF3D2A0827
:100C9800B03D2B08B13D3908A800A901AA01AB0154
:100CA8002808B4072908B53D2A08B63D2B08B73DE2
:100CB8002208A8002808F000240882311C22853167
:100CC80071082000B9007008B8003808A800A90108
:100CD800AA01AB012808AE072908AF3D2A08B03D94
:100CE8002B08B13D3908A800A901AA01AB012808C1
:100CF800B4072908B53D2A08B63D2B08B73D08308A
:100D0800AE35AF0DB00DB10D890B842E2108A800AA
:100D18002808F000240882311C228531710820003F
:100D2800B9007008B8003808AE073908AF3D003080
:100D3800B03DB13D2008A8002808F0002508823100
:100D48001C22853171082000B9007008B8003808E5
:100D5800AE073908AF3D0030B03DB13D0830AE3583
:100D6800AF0DB00DB10D890BB32E2008A8002808CF
:100D7800F000240882311C22853171082000B90056
:100D88007008B8003808AE073908AF3D0030B03DEC
:100D9800B13D2108A8002808F000260882311C224D
:100DA800853171082000B9007008B8003808B40708
:100DB8003908B53D0030B63DB73D2208A8002808DF
:100DC800F000250882311C22853171082000B90005
:100DD8007008B8003808B4073908B53D0030B63D8A
:100DE800B73D2208A8002808F000260882311C22F6
:100DF800853171082000B9007008B8003808A800CB
:100E08003908A900AA01AB010830A835A90DAA0D17
:100E1800AB0D890B092F2808B4072908B53D2A0806
:100E2800B63D2B08B73D2E08A8002F08A9003008AA
:100E3800AA003108AB001830AB36AA0CA90CA80CD4
:100E4800890B202F2808B4072908B53D2A08B63D84
:100E58002B08B73D0830AE35AF0DB00DB10D890B7D
:100E68002F2F33083207A800A901A90D2808823EB0
:100E7800B800FF30293DB900582F0130B435B50D01
:100E8800B60DB70D890B422FB11F4B2F4C2F4D2F8D
:100E980034140130AE35AF0DB00DB10D890B4E2FA6
:100EA800FF30B807FF30B93DB61F5B2F5C2F412FCD
:100EB800B201B11F602F612F7D2FFF302E05A800D2
:100EC800FF302F05A900FF303005AA007F3031051B
:100ED800AB002B082A04290428040319742F752F42
:100EE800782FB201B20A7D2F341C7B2F7C2F7D2FE7
:100EF800752F32080319812F822FAA2F0130B407CA
:100F08000030B53D0030B63D0030B73D371C8D2F61
:100F18008E2FAA2F3408A8003508A9003608AA0081
:100F28003708AB000130AC00AB37AA0CA90CA80CF1
:100F3800AC0B982F2B08B7002A08B6002908B50073
:100F48002808B4000130B8070030B93D3908803AA4
:100F5800A80080302802031DB32FFF303802031C7D
:100F6800B62FB72FC12F7F302000B7008030B600D2
:100F78000030B5000030B400F02F20003908803A66
:100F8800A80080302802031DCB2F01303802031837
:100F9800CE2FCF2FDA2F00302000B7000030B60058
:100FA8000030B5000030B400AD01F02F2000380843
:100FB800A8002808B300FF30B405FF30B5057F301E
:100FC800B6050030B705331CEA2FEB2FEC2FB61708
:100FD8003336A8002808B7002D08A8002808B70449
:100FE8003708A3003608A2003508A1003408A0007D
:080FF800080020008231B42A38
:00000001FF
