:100000000C9472000C9427010C9427010C94270186
:100010000C9427010C9427010C9427010C942701C0
:100020000C9427010C9427010C9427010C942701B0
:100030000C9427010C9427010C9427010C942701A0
:100040000C9427010C9427010C9427010C94270190
:100050000C9427010C9427010C9427010C94270180
:100060000C9427010C9427010C9427010C94270170
:100070000C9427010C9427010C9427010C94270160
:100080000C9427010C9427010C9427010C94270150
:100090000C9427010C9427010C9427010C94270140
:1000A0000C9427010C9427010C9427010C94270130
:1000B0000C9427010C9427010C9427010C94270120
:1000C0000C9427010C9427010C9427010C94270110
:1000D0000C9427010C9427010C9427010C94270100
:1000E0000C94270111241FBECFEFD1E2DEBFCDBF9C
:1000F00000E00CBF0E94FE000C947E00F894FFCF3D
:080100006579616E7472610003
:10010800E1ECF0E0208128612083E2ECF0E020813E
:1001180026602083DC01CB01880F991FAA1FBB1F13
:10012800880F991FAA1FBB1F9C01AD01220F331F07
:10013800441F551F220F331F441F551F60E072E1F3
:100148008AE790E00E94DC008FEF820F8093C40062
:10015800DA01C9010197A109B109892F9A2FAB2F9B
:08016800BB278093C500089538
:10017000CF92DF92EF926B01E82EFB015E2D0E9481
:1001800020016623A9F08FEFC81AD80AE80A862F43
:100190000E9418018FEFC81AD80AE80AAE2DC601CE
:1001A0000197A109FC015A2F0E9420016111EFCF94
:0801B000EF90DF90CF9008955D
:1001B800A1E21A2EAA1BBB1BFD010DC0AA1FBB1F63
:1001C800EE1FFF1FA217B307E407F50720F0A21BD5
:1001D800B30BE40BF50B661F771F881F991F1A9442
:1001E80069F760957095809590959B01AC01BD016C
:0401F800CF01089596
:1001FC008FEF81B960E875E280E090E00E948400A6
:10020C0060E071E080E00E94B8000E9410010E9442
:04021C001801FBCFFB
:10022000E0ECF0E080818823ECF78091C60008952F
:10023000E0ECF0E0908195FFFDCF8093C60008953B
:0E02400057FD03C05BBF67910895608108956C
:04024E000C9400000C
:00000001FF
