:100000000C9472000C94A3000C94A3000C94A30015
:100010000C94A3000C94A3000C94A3000C94A300D4
:100020000C94A3000C94A3000C94A3000C94A300C4
:100030000C94A3000C94A3000C94A3000C94A300B4
:100040000C94A3000C94A3000C94A3000C94A300A4
:100050000C94A3000C94A3000C94A3000C94A30094
:100060000C9480000C94A3000C94A3000C94A300A7
:100070000C94A3000C94A3000C94A3000C94A30074
:100080000C94A3000C94A3000C94A3000C94A30064
:100090000C94A3000C94A3000C94A3000C94A30054
:1000A0000C94A3000C94A3000C94A3000C94A30044
:1000B0000C94A3000C94A3000C94A3000C94A30034
:1000C0000C94A3000C94A3000C94A3000C94A30024
:1000D0000C94A3000C94A3000C94A3000C94A30014
:1000E0000C94A30011241FBECFEFD1E2DEBFCDBF21
:1000F00000E00CBF0E9496000C947E00F894FFCFA5
:100100001F920F920FB60F9211248F939F938EB56B
:1001100088B987EA91E60197F1F700C000009F9146
:0C0120008F910F900FBE0F901F9018954C
:10012C008FEF87B918B878940E949E0018B8FFCF4B
:0A013C0088E084B980EC8CBD0895C2
:040146000C94000015
:00000001FF
